:020000040002F8
:10000000D0D10020552B02005D2B02005F2B020097
:10001000612B0200632B0200652B02000000000030
:10002000000000000000000000000000672B02003C
:10003000692B0200000000006B2B02009D130200E0
:100040006F2B0200712B0200732B0200752B020034
:10005000772B0200792B02007B2B02007D2B020004
:100060007F2B0200812B0200832B0200852B0200D4
:10007000872B0200892B02008B2B02008D2B0200A4
:100080008F2B0200912B0200932B0200952B020074
:10009000972B0200111102009B2B02009D2B0200E6
:1000A0009F2B0200A12B0200A32B0200A52B020014
:1000B000A72B0200A92B0200AB2B0200AD2B0200E4
:1000C000AF2B0200B12B0200B32B0200B52B0200B4
:1000D000B72B0200B92B0200B1130200BD2B0200A6
:1000E000BF2B0200C12B0200C32B0200C52B020054
:1000F000C72B0200C92B0200CB2B0200CD2B020024
:10010000CF2B0200D12B0200D32B0200D52B0200F3
:10011000D72B0200D92B0200DB2B0200DD2B0200C3
:10012000DF2B0200E12B0200E32B0200E52B020093
:10013000E72B0200E92B0200EB2B0200ED2B020063
:10014000EF2B0200F12B0200F32B0200F52B020033
:10015000F72B0200F92B0200FB2B0200FD2B020003
:10016000FF2B0200B9040200032C0200052C020040
:10017000072C0200092C02000B2C0200BD0102001A
:100180000F2C0200112C0200132C0200152C02006F
:10019000172C0200192C02001B2C02001D2C02003F
:1001A0001F2C0200212C0200DFF80CD029F01CFDCE
:1001B0000048004721030200D0D1002080B546F658
:1001C0000010C4F2040004F05BFA0120BDE8804096
:1001D00021F0BEBBF0B581B01C4683784178C07871
:1001E0001B0243EA014100F0030715463A19014496
:1001F000101D48F20006930718BF20F00302C81B29
:10020000C8F2360600F1E041304629F00AF947EA23
:1002100006012846224629F004F9012001B0F0BD6C
:10022000F0B581B040F24C000C46C2F2000001680B
:10023000B4F90000B4F902304FF4487713FB070318
:10024000A08801EB4305B0F5487F16460CD1E08845
:100250004FF4C86100FB01F22846314601B0BDE809
:10026000F04029F0DEB800BFE188C9B3002700BF25
:1002700042002846314629F0D4F8E08847F00101D1
:1002800081422DD2A08806EB4006420005F5C860E9
:10029000314629F0C6F8E08847F0020181421FD2BA
:1002A000A08806EB4006420005F54860314629F07B
:1002B000B8F8E08847F00301814211D2A08806EB2C
:1002C0004006420005F59650314629F0AAF8A0886C
:1002D000E18806EB400604378F4205F5C855C7D3C1
:1002E00001B0F0BDB0B500200C46002501F054FA75
:1002F00040B140F29410C2F2000001880125218033
:1003000040896080A573B0BD00208873704700BF2E
:1003100037210A2838BF30210844C0B2704700BFD7
:1003200082B02425C4F2000501F0FCFB62B600F0A7
:1003300093FE00F0BDFE00F0CDF800F0B7FF012005
:10034000012403F095FD042000F070FB03F074FB22
:1003500001F0EEF840F20800C2F20000009446F608
:1003600000140288C4F20404204600214FF47A737A
:10037000002703F001FE204604F0A4F80AF0A2F9D9
:1003800047F20001C0F217014FF0004029F070F869
:1003900028F0B8F928F0A4F92868800704D50220CD
:1003A000286027A02AF0D0F840F299094CF2CC1628
:1003B00040F2A4044CF65845C2F20009C2F200060D
:1003C000C2F20004C0F204050FF288080AF09AF99C
:1003D000012000F09DFF99F8000048B3204689F8FD
:1003E000007027F08DFC2178284629F00FFC6178F9
:1003F000284629F00BFCA178284629F007FCE17873
:10040000284629F003FC2179284629F0FFFB617971
:10041000284629F0FBFBA179284629F0F7FBE17972
:10042000284629F0F3FB40462AF08EF867602760E3
:1004300030780028CAD0377027F0B4FCC6E700BF78
:100440005744542052657365742048617070656E1E
:1004500065640D000D00000080B588B00420ADF883
:10046000000040F22030C0F2E010CDF80200282059
:100470008DF80600ADF808000D208DF80A001D204B
:10048000C0F23000039040F24C00C2F2000000685D
:10049000302105904FF6FF7006904FF48070ADF854
:1004A0001C0042F20000ADF81010C4F200006946D2
:1004B00002F07EFF08B080BD10B542F20004C4F225
:1004C0000004204603F028F82046BDE8104003F061
:1004D00011B800BF2DE9F0478AB04027C4F20A07DF
:1004E00007F1400940F2000844F2402548460D213A
:1004F00002220023C4F20A08C0F20F054FF0000ADE
:1005000003F0E4F848460E210322002303F0DEF84E
:10051000A7F13006304607210122002303F0D6F868
:10052000304608210422002303F0D0F83046092188
:100530000422002303F0CAF830460A2104220023D3
:1005400003F0C4F838460F210122002303F0BEF85F
:1005500038460E210122002303F0B8F807F15004B9
:1005600020460E210122002303F0B0F820460D2181
:100570000122002303F0AAF820460C2101220023C7
:1005800003F0A4F820460B210122002303F09EF87B
:1005900020460A210122002303F098F82046092171
:1005A0000122002303F092F82046082101220023B3
:1005B00003F08CF8204607210122002303F086F87F
:1005C000204606210122002303F080F82046032163
:1005D0000222002303F07AF820460F210122002393
:1005E00003F074F8204602210122002303F06EF884
:1005F00048460F210322002303F068F838460721FC
:100600000122012303F062F838460621012201236A
:1006100003F05CF8384605210122012303F056F867
:10062000384604210122012303F050F83846032103
:100630000122012303F04AF8384602210122012356
:1006400003F044F8384601210122012303F03EF86B
:10065000384600210122012303F038F838460821EA
:100660000122012303F032F8384609210122012337
:1006700003F02CF838460A210122012303F026F862
:1006800038460B210122012303F020F838460C21C3
:100690000122012303F01AF838460D21012201231B
:1006A00003F014F8203F38460E210122012303F005
:1006B0000DF838460F210122012303F007F83046D8
:1006C00006210122002303F001F848460C210222F2
:1006D000002302F0FBFF4FF00070029040F6027022
:1006E000ADF80C0002A803F017F8A8F5BD242046C9
:1006F000092101220023CDF800A0CDF804A002F0CA
:1007000085FB2046092102F039FC20460121012207
:100710000023CDF800A0CDF804A002F077FB20461E
:10072000012102F033FC284600BF00BF00BF00BF1C
:1007300000BF00BF00BF00BF00BF00BF00BF00BFC1
:1007400000BF00BF00BF00BF00BF00BF00BF00BFB1
:1007500000BF00BF00BF00BF00BF00BF00BF00BFA1
:1007600000BF00BF00BF00BF00BF00BF00BF00BF91
:1007700000BF00BF00BF00BF00BF00BF00BF00BF81
:1007800000BF00BF00BF00BF00BF00BF00BF00BF71
:1007900000BF00BF00BF00BF00BF00BF00BF00BF61
:1007A00000BF00BF00BF403800BFBDD120460121BF
:1007B00002F0E4FB00BF00BF00BF00BF00BF00BFEE
:1007C00000BF00BF00BF00BF00BF00BF00BF00BF31
:1007D00000BF00BF00BF00BF00BF00BF00BF00BF21
:1007E00000BF00BF00BF00BF00BF00BF00BF00BF11
:1007F00000BF00BF00BF00BF00BF00BF00BF00BF01
:1008000000BF00BF00BF00BF00BF00BF00BF00BFF0
:1008100000BF00BF00BF00BF00BF00BF00BF00BFE0
:1008200000BF00BF00BF00BF00BF00BF00BF00BFD0
:1008300000BF403D00BFBDD130460121042200234E
:10084000042402F043FF30460B210622002302F06D
:100850003DFF30460D21072200230D2502F036FF13
:1008600030460F210722002302F030FF40460221CC
:100870000422002302F02AFF40460921022200231D
:1008800002F024FF40460A210522002302F01EFF49
:1008900040460B210422002302F018FF40460C21A1
:1008A0000422002302F012FF40460D2104220023FF
:1008B00002F00CFF40460E210222002302F006FF48
:1008C00040460F210222002302F000FF384600219B
:1008D0000522002302F0FAFE3846012106220023F9
:1008E00002F0F4FE384602210622002302F0EEFE5A
:1008F000384603210622002302F0E8FE3846042190
:100900000622002302F0E2FE3846052104220023DD
:1009100002F0DCFE384608210122002302F0D6FE58
:10092000384609210422002302F0D0FE38460A216D
:100930000422002302F0CAFE38460B2104220023C1
:1009400002F0C4FE38460C210322002302F0BEFE52
:1009500038460D210622002302F0B8FE304602215F
:100960000622002302F0B2FE48460821032200239B
:1009700002F0ACFE48460B210222002302F0A6FE44
:10098000304605210622002302F0A0FE40F220306E
:10099000C0F2E010CDF80A0028208DF80E00ADF866
:1009A00010001D20C0F2300040F24C0105903020B4
:1009B000C2F200010968ADF818004FF6FF70ADF8FB
:1009C000084008904FF48070A8F51E240791ADF8F8
:1009D000240002A920468DF8125002F0E9FC2046BE
:1009E00002F088FD0AB0BDE8F08700BF40F24C037A
:1009F000C2F20003D3F800C04FF4487301FB0300B8
:100A00002CF81020704700BF40F28C12C2F2000296
:100A100040F24C03D2F800C0C2F200034FF4487217
:100A20001B6801FB020023F810C0704770B582B04C
:100A30003025C4F20A050446284605210122002378
:100A400002F044FE284606210122002302F03EFE69
:100A50002846082102220123022602F037FE2846FA
:100A600007210322012302F031FE2846032102223E
:100A7000012302F02BFE284604210222012302F06A
:100A800025FE022C08D0042C0CD102200121322694
:100A9000EB228DF800000BE08DF8006000210120B2
:100AA000BB2205E002268DF8006000200322002111
:100AB0008DF8020068468DF801208DF803608DF8EE
:100AC000041002F06DFF02B070BD00BFF0B581B040
:100AD00000F0030714467A1848F200060D46111D6F
:100AE00000F1E040C8F23606930718BF21F0030278
:100AF00020F00301304628F094FC47EA0601204626
:100B00002A4628F08EFC012001B0F0BDB0B50C469D
:100B1000B2F5807F054607D94CF65D40C0F204006F
:100B200029F012FD4FF48072920820462946BDE854
:100B3000B04003F095B800BF2DE9F04116460D46D0
:100B4000044608064FEA122730D0002FC5F10007EF
:100B500044D0F8B2A6EB00088208284621461FFAC6
:100B600088F603F07DF8002055FA87F5B0EB162FD4
:100B700054FA87F40CD0370A284621464022013F18
:100B800003F06EF805F58075380604F58074F3D12E
:100B90005FFA88F0002808BFBDE8F0818208284687
:100BA0002146BDE8F04103F05BB800BF002F27D01D
:100BB0000CD000BF284621464022013F03F050F8E8
:100BC00005F58075380604F58074F3D1C6F3850207
:100BD00028462146BDE8F04103F042B8F0B2FFB22A
:100BE000B8420DD9BA08284621462E4403F038F8F9
:100BF0007819E119C6F38502BDE8F04103F030B879
:100C0000B6F5807F07D94CF65D40C0F2040029F0AC
:100C10009BFC4FF48076B20828462146BDE8F0419F
:100C200003F01EB8B0B582B041F60004C4F204046B
:100C3000002520460521012201230095019502F09F
:100C4000E5F820460621012201230095019502F0D6
:100C5000DDF820460821012201230095019502F0CC
:100C6000D5F820460721002201230095019502F0C6
:100C7000CDF820460321012201230095019502F0C1
:100C8000C5F820460421012201230095019502F0B8
:100C9000BDF82046032102F071F92046042102F03C
:100CA0006DF92046062102F069F92046082102F07C
:100CB00065F92046052102B0BDE8B04002F05EB9FA
:100CC000B0B541F60004C4F20404054620460521EF
:100CD00002F05CF9280605D42046082102F056F9F6
:100CE00004E000BF2046082102F048F92046052113
:100CF00002F044F92046052102F048F9680605D4BF
:100D00002046082102F042F904E000BF20460821F5
:100D100002F034F92046052102F030F92046052181
:100D200002F034F9A80605D42046082102F02EF975
:100D300004E000BF2046082102F020F920460521EA
:100D400002F01CF92046052102F020F9E80605D43E
:100D50002046082102F01AF904E000BF20460821CD
:100D600002F00CF92046052102F008F92046052181
:100D700002F00CF9280705D42046082102F006F9F4
:100D800004E000BF2046082102F0F8F820460521C3
:100D900002F0F4F82046052102F0F8F8680705D4BF
:100DA0002046082102F0F2F804E000BF20460821A6
:100DB00002F0E4F82046052102F0E0F82046052183
:100DC00002F0E4F8A80705D42046082102F0DEF876
:100DD00004E000BF2046082102F0D0F8204605219B
:100DE00002F0CCF82046052102F0D0F8E80709D13E
:100DF0002046082102F0CAF820460521BDE8B0408F
:100E000002F0BCB82046082102F0B8F820460521BF
:100E1000BDE8B04002F0B2B870B541F60004C4F2CB
:100E200004042046052102F0A9F82046052102F01D
:100E3000ADF82046072102F0B9F80546002818BF92
:100E400001252046052102F099F82046052102F0EF
:100E50009DF82046072102F0A9F8002818BF0120BC
:100E600040EA45062046052102F088F82046052183
:100E700002F08CF82046072102F098F80546002879
:100E800018BF01252046052102F078F820460521EB
:100E900002F07CF8B00040EA45052046072102F048
:100EA00085F8002818BF01202E182046052102F0E1
:100EB00065F82046052102F069F82046072102F076
:100EC00075F80546002818BF01252046052102F0C7
:100ED00055F82046052102F059F8B00040EA4505D2
:100EE0002046072102F062F8002818BF01202E18C2
:100EF0002046052102F042F82046052102F046F87E
:100F00002046072102F052F80546002818BF0125A7
:100F10002046052102F032F82046052102F036F87D
:100F2000B00040EA45052046072102F03FF80028BE
:100F300018BF012005442046052102F01FF8E8B241
:100F400070BD00BF2DE9F04182B041F600081C469B
:100F500016460F460546C4F20408FFF763FE4046F6
:100F6000062102F013F83FB1013D00BF15F8010F53
:100F7000FFF7A6FE013FF9D134B1751EFFF74CFF14
:100F800005F8010F013CF9D14046062101F0F6FFBA
:100F90003024C4F20A042046052101220023002542
:100FA00002F094FB204606210122002302F08EFB72
:100FB000204608210222012302F088FB2046072157
:100FC0000322012302F082FB204603210222012397
:100FD00002F07CFB204604210222012302F076FB72
:100FE00040F20230C0F20020009068468DF80450B4
:100FF00002F0D6FC012002B0BDE8F081B0B543F6A6
:101000000005C4F204050446C1B2284603F030FED0
:10101000284603F037FE0028FAD12046B0BD00BFB5
:1010200070B543F6000504460026C4F2040500BF6F
:10103000284603F027FE0028FAD12178284603F03D
:1010400017FE14F8011F701C022E0646F0D300296B
:10105000064608BF70BDEBE7B0B584B08024C4F28B
:101060000A042046002101220123002502F02EFB64
:10107000204601210122002302F028FB42F2000455
:101080004FF4E130C4F20404009069462046ADF804
:1010900004508DF806508DF808508DF80A508DF8E0
:1010A0000C5003F019FD204603F0DCFD04B0B0BD88
:1010B000B0B584B01024C4F20A04204604210222F0
:1010C0000123012502F002FB204603210222002316
:1010D00002F0FCFA4FF4E13000904FF020600190F4
:1010E00040F2017043F60004C0F60020C4F204048C
:1010F0000290694620468DF80C5003F0EDFCE06943
:1011000020F48050E061204603F0ACFD04B0B0BD97
:10111000F0B581B043F60004C4F204042046102167
:1011200003F076FE40F298060028C2F200066CD06A
:101130002046102103F064FE6946204603F09AFD24
:1011400048B93078092806D89DF8001032180130C7
:101150009170117330706946204603F08BFD48B9D9
:1011600030780A2806D29DF80010321801309170AC
:10117000117330706946204603F07CFD48B9307821
:10118000092806D89DF800103218013091701173AB
:1011900030706946204603F06DFD48B93078092863
:1011A00006D89DF80010321801309170117330701C
:1011B0006946204603F05EFD48B93078092806D814
:1011C0009DF800103218013091701173307069462B
:1011D000204603F04FFD48B93078092806D89DF81D
:1011E000001032180130917011733070694620463A
:1011F00003F040FD48B93078092806D89DF8001062
:101200003218013091701173307020464FF48041D4
:1012100003F0FEFD18B3204603F03AFD10B330781A
:10122000012815D1B078052812D1EFF3108072B6DD
:1012300004F5BA2420460021052203F005FE2046CD
:1012400003F042FE00BF00BF00BF00BFFAE700BFCF
:101250000020307020464FF4804103F0D1FD01B0F2
:10126000F0BD00BF6D46012706E000BF7770204645
:1012700003F00EFD0028D2D12046294603F0FAFCE7
:101280000028F4D130780928F0D89DF800103218E1
:101290000130917011733070E8E700BF014643F6EA
:1012A0000000C4F2040003F0E3BC000040F20400BC
:1012B000C2F20000006844F6D351C1F26201A0FB03
:1012C00001014FF0FF3000EB9110B0F1807F01D3AE
:1012D000FEE700BF4EF21001CEF2000148604EF66C
:1012E0002350CEF20000E022027000208860072028
:1012F0000860704740F29010C2F2000001680131AE
:101300000160704740F29010C2F200000068704720
:1013100040F29011C2F200010A6808E00B689B1AC3
:10132000834228BF70470B689B1A834207D20B6821
:101330009B1A834203D20B689B1A8342EED37047F9
:1013400080B54EF21801CEF2000151F804CC44F6FB
:10135000D3520CFB00F0C1F26202A0FB020208684B
:101360004FEA921E002309E003449B1A904298BF63
:1013700063447345104628BF80BD00BF0A68904291
:10138000F2D10A689042EFD10A689042ECD10A6823
:101390009042F3D0E8E700BF704700BF40F29010E2
:1013A000C2F20000016801310160FFF7F5BF0000E3
:1013B00010B541F60004C4F204042046002101F0F7
:1013C00073FC002808BF10BD2046002101F078FC06
:1013D00040F28810C2F200000121017010BD00BF70
:1013E000704700BF10B582B041F60004C4F2040497
:1013F0004FF0000C2046002100220023CDF800C051
:10140000CDF804C001F002FD20460021002201F0C9
:101410000DFC4EF20410CEF2000040210160204687
:10142000002102B0BDE8104001F036BC002070473A
:101430002DE9F04146F20008C4F20A0815460E46AE
:1014400004464046BA210122012701F005FFE0B120
:10145000210A40460122012701F04AFFA8B1E1B26A
:1014600040460122012701F043FF70B165B1012719
:1014700031784046012201F03BFF30B1013D06F1D9
:101480000106F5D1002700E000274046012101F0C8
:101490000FFF3846BDE8F0812DE9F04381B046F2F8
:1014A0000009C4F20A0990460D4606464846BA218C
:1014B0000122012701F0D0FE90B3310A48460122F3
:1014C000012701F015FF58B3F1B248460122012768
:1014D00001F00EFF20B30520FFF71AFF4846BB219D
:1014E0000122012701F0B8FED0B1B8F1020F0FD3ED
:1014F000A8F101070026002448460121012201F03D
:101500001DFF0134A855E6B2B742F5DC01E000BF8B
:101510000026484600210122002701F00FFFA855B0
:101520004846012101F0C4FE384601B0BDE8F08311
:101530002DE9F04788B00025C4F2040505F5C02662
:10154000304601210122012348F240084FF0010AF0
:1015500002F0BCF840F20014C4F20A042068002132
:1015600040F002002060D4F80003012240F00200A5
:10157000C4F8000330460123002702F0A7F82068D2
:1015800004F5BE4640F001002060D4F8000302A933
:1015900040F00100C4F8000348F2A060C0F201006E
:1015A000039030468DF808A08DF81070ADF81670D5
:1015B00001F078FD304601F049FE05F5C056304691
:1015C000002100220023CDF800A0019701F01EFCAD
:1015D00028460521012201230097019701F016FCFE
:1015E0002846052101F0D2FC0A20FFF791FE28468B
:1015F000052101F0C3FC0A20FFF78AFE07AF4FF078
:10160000020948F24000394601228DF81C90FFF78C
:101610000FFF6420FFF77CFE6420FFF779FE284669
:10162000052101F0B3FC3046002101F0AFFC1E2083
:10163000FFF76EFE2846052101F0A0FC3046002190
:1016400001F0A4FC1E20FFF763FE3046002101F0EC
:101650009DFC1E20FFF75CFE3046002101F08EFC51
:1016600048F2401039460422FFF716FF079843F26C
:101670003911C0F23101884204D0504608B0BDE8AB
:10168000F08700BF07AC48F24000214601228DF8E8
:101690001C90FFF7CDFE08F1070080B22146012221
:1016A000FFF7FAFE9DF81C1067299CBF09A028F0DF
:1016B000ADFA0A20FFF72CFE4FF0000A07A948F206
:1016C000400001228DF81CA0FFF7B2FE504608B082
:1016D000BDE8F08744656661756C74205665723AA2
:1016E00025780D0A00000000B0B541F60004C4F2F0
:1016F00004042828A4F5C05516D0BA2828D12846B5
:10170000052101F043FC2046002101F03FFC1E2092
:10171000FFF7FEFD2846052101F030FC20460021A0
:1017200001F034FC27E000BF2846052101F02EFC23
:101730002046002101F022FC1E20FFF7E9FD28468B
:10174000052101F01BFC2046002101F017FC12E0EE
:101750002846052101F01AFC2046002101F016FC64
:101760001E20FFF7D5FD2846052101F007FC204685
:10177000002101F00BFC1E20FFF7CAFD20460021CE
:1017800001F004FC1E20FFF7C3FD20460021BDE848
:10179000B04001F0F3BB00BF2DE9F04383B000205F
:1017A0008DF805000DF1050148F24E10012248F2B6
:1017B0004E160127FFF770FE70B1A6F5877080B254
:1017C0000DF10B0101228DF80B70FFF731FE0020A7
:1017D00003B0BDE8F08300BF40F29419C2F20009E3
:1017E00099F914009DF80550B0F1FF3F40F3E880EF
:1017F00068B205F00F04B0F1FF3F0DDC052C0BD8EB
:1018000000208DF806000DF1060148F24E1001226D
:10181000FFF70EFE0028D0D1002C00F0DB80FF2067
:10182000A040C1218DF8060061EA000099F81480FB
:1018300089F81400B9F80000B9F80A10A9F80800EE
:10184000B01C80B2A9F812100DF107010422FFF7B5
:1018500023FE0028B1D19DF808109DF8070001F083
:101860000F0140EA01209DF80A109DF80920A9F80F
:10187000000001F00F0199F8140042EA01218207EB
:10188000A9F80A101FD506F10A0080B20DF1070170
:101890000422FFF701FE00288FD19DF808109DF863
:1018A000070001F00F0140EA01209DF80A109DF8A1
:1018B0000920A9F8020001F00F0042EA002199F87E
:1018C0001400A9F80C10410720D506F1120080B2CF
:1018D0000DF107010422FFF7DFFD00287FF46DAF53
:1018E0009DF808109DF8070001F00F0140EA012063
:1018F0009DF80A109DF80920A9F8040001F00F00D6
:1019000042EA002199F81400A9F80E10010720D529
:1019100006F11A0080B20DF107010422FFF7BCFDA9
:1019200000287FF44AAF9DF808109DF8070001F0E9
:101930000F0140EA01209DF80A109DF80920A9F83E
:10194000060001F00F0042EA002199F81400A9F8FE
:101950001010C0061ED506F1220080B20DF107015D
:101960000422FFF799FD00287FF427AF9DF80810A7
:101970009DF807009DF80A309DF8092001F00F013D
:1019800040EA012003F00F0142EA0121A9F8080012
:10199000A9F81210B9F800004009182804D8B9F8BD
:1019A0000A00B0F5F07F09D3022C31D3B9F8020058
:1019B000B9F80C10A9F80000A9F80A1001200AE0F3
:1019C00015B3FF2D7FF414AF002089F8140003B085
:1019D000BDE8F083002005F08F0180297FF4F8AE88
:1019E00099F814804FFA88F1B1F1FF3F21DD4FF0F3
:1019F000FF31A9F80010A9F80A1008F0E00189F8F1
:101A0000141003B0BDE8F083012003B0BDE8F083FB
:101A1000B9F80800B9F81210A9F800008020A9F858
:101A20000A108DF8050001204FFA88F1B1F1FF3F4F
:101A3000DDDC08F07F0189F8141003B0BDE8F08305
:101A400080B582B001208DF807000DF1070148F242
:101A500040000122FFF7ECFC02B080BD4FF0804156
:101A60000868C00740F20400C2F200000ED1096805
:101A7000C1F38201042944D8DFE801F00418282CBE
:101A8000320000BF4FF4FA413AE000BF4AF20001D1
:101A9000C4F20A010968890745F60021C0F26221F3
:101AA0005CBF42F60051C0F2311131E04AF2000150
:101AB000C4F20A01096C89074CF2EC11C0F6EB3153
:101AC0005CBF40F60061C0F2277119E04FF400419D
:101AD00016E000BF41F60031C0F2B70110E000BFD0
:101AE00042F60051C0F2311101604AF20001C4F225
:101AF0000A010968890704D545F60021C0F2622170
:101B000001604FF080410A680168920701D5C90859
:101B100001604DF68362C4F21B32A1FB0212910CEC
:101B20004160704710B57024C4F2000454F8680C8A
:101B300040F0007044F8680C962001F013F9002082
:101B400000F0BCF84FF080400168C90716D100686A
:101B500040F6006CC0F38201C0F2277C04296CD8E7
:101B6000DFE801F00432444C560000BF40F20401AB
:101B7000C2F200014FF4FA425EE000BF4AF20000F8
:101B8000C4F20A00006845F6002180074DF6836024
:101B9000C0F26221C4F21B305CBF42F60051C0F2B9
:101BA0003111A1FB000240F20400C2F20000920CCD
:101BB000C0E900124CF28032C0F2C9121E209142DC
:101BC00088BF282061E000BF4AF20001C4F20A0188
:101BD000096C40F2040289074CF2EC11C0F6EB31BB
:101BE000C2F2000258BF6146116026E040F20401D3
:101BF000C2F200014FF400421EE000BF40F20401B7
:101C000041F60032C2F20001C0F2B70214E000BF98
:101C100040F2040142F60052C2F20001C0F2311259
:101C20000A604AF20002C4F20A021268920704D55E
:101C300045F60022C0F262220A604FF080410B6834
:101C400040F204029B07C2F200024DF68363116862
:101C5000C4F21B3344BFC9081160A1FB0330800CE0
:101C60006145506002D996200FE000BF4BF2004062
:101C7000C0F2C440814201D9782006E045F6002038
:101C8000C0F26220814295D9502001F06BF840F2F9
:101C90008010C4F20A00D0F8001121F00201C0F84F
:101CA0000011016821F00C010160206820F006009D
:101CB0002060206840F00200206010BDB0B54AF2FC
:101CC0000001C4F20A0101220A604FF080410A6853
:101CD0000446D20720D1086810F01C0F06D04FF040
:101CE0008040006800F01C00082815D100BF00BF2C
:101CF00000BF00BF00BF00BF00BF00BF00BF00BFEC
:101D000000BF00BF00BF00BF00BF00BF00BF00BFDB
:101D100000BF00BF36E000BF44F6206000BF00BF38
:101D200000BF00BF00BF00BF00BF00BF00BF00BFBB
:101D300000BF00BF00BF00BF00BF00BF00BF00BFAB
:101D400000BF00BF00BF00BF00BF00BF00BF00BF9B
:101D500000BF00BF00BF00BF00BF00BF00BF00BF8B
:101D600000BF00BF00BF00BF00BF00BF00BF00BF7B
:101D700000BF00BF00BF00BF00BF00BF00BF3238C0
:101D800000BFCBD14FF08045286840F001002860AB
:101D900000F0F6FB0420C4F2000001210160286875
:101DA000002C20F01C002860286840F00400286007
:101DB000286820F0020018BF02302860286820F050
:101DC00001002860B0BD00BF704700BF4AF20000AC
:101DD000C4F20A00012101604FF080400168C90788
:101DE00020D1006810F01C0F06D04FF08040006832
:101DF00000F01C00082815D100BF00BF00BF00BFC5
:101E000000BF00BF00BF00BF00BF00BF00BF00BFDA
:101E100000BF00BF00BF00BF00BF00BF00BF00BFCA
:101E200036E000BF44F6206000BF00BF00BF00BF27
:101E300000BF00BF00BF00BF00BF00BF00BF00BFAA
:101E400000BF00BF00BF00BF00BF00BF00BF00BF9A
:101E500000BF00BF00BF00BF00BF00BF00BF00BF8A
:101E600000BF00BF00BF00BF00BF00BF00BF00BF7A
:101E700000BF00BF00BF00BF00BF00BF00BF00BF6A
:101E800000BF00BF00BF00BF00BF323800BFCBD1D2
:101E90004FF08040016841F001010160704700BFD0
:101EA0004AF20000C4F20A00012101604FF08040B4
:101EB0000168C90720D1006810F01C0F06D04FF050
:101EC0008040006800F01C00082815D100BF00BF4A
:101ED00000BF00BF00BF00BF00BF00BF00BF00BF0A
:101EE00000BF00BF00BF00BF00BF00BF00BF00BFFA
:101EF00000BF00BF36E000BF44F6206000BF00BF57
:101F000000BF00BF00BF00BF00BF00BF00BF00BFD9
:101F100000BF00BF00BF00BF00BF00BF00BF00BFC9
:101F200000BF00BF00BF00BF00BF00BF00BF00BFB9
:101F300000BF00BF00BF00BF00BF00BF00BF00BFA9
:101F400000BF00BF00BF00BF00BF00BF00BF00BF99
:101F500000BF00BF00BF00BF00BF00BF00BF3238DE
:101F600000BFCBD14FF080400168012241F0010158
:101F700001600421C4F200010A60016821F01C0123
:101F80000160016841F010010160016841F0020147
:101F900001600168C9071FD1006810F01C0F06D04E
:101FA0004FF08040006800F01C00082814D100BFEA
:101FB00000BF00BF00BF00BF00BF00BF00BF00BF29
:101FC00000BF00BF00BF00BF00BF00BF00BF00BF19
:101FD00000BF00BF00BF35E044F6206000BF00BF77
:101FE00000BF00BF00BF00BF00BF00BF00BF00BFF9
:101FF00000BF00BF00BF00BF00BF00BF00BF00BFE9
:1020000000BF00BF00BF00BF00BF00BF00BF00BFD8
:1020100000BF00BF00BF00BF00BF00BF00BF00BFC8
:1020200000BF00BF00BF00BF00BF00BF00BF00BFB8
:1020300000BF00BF00BF00BF00BF00BF00BF3238FD
:1020400000BFCBD14FF08040016821F00101016059
:10205000704700BF4AF20000C4F20A000321016089
:102060004FF080400168C90720D1006810F01C0FB4
:1020700006D04FF08040006800F01C00082815D101
:1020800000BF00BF00BF00BF00BF00BF00BF00BF58
:1020900000BF00BF00BF00BF00BF00BF00BF00BF48
:1020A00000BF00BF00BF00BF36E000BF44F62060A5
:1020B00000BF00BF00BF00BF00BF00BF00BF00BF28
:1020C00000BF00BF00BF00BF00BF00BF00BF00BF18
:1020D00000BF00BF00BF00BF00BF00BF00BF00BF08
:1020E00000BF00BF00BF00BF00BF00BF00BF00BFF8
:1020F00000BF00BF00BF00BF00BF00BF00BF00BFE8
:1021000000BF00BF00BF00BF00BF00BF00BF00BFD7
:1021100000BF323800BFCBD14FF08040016841F0A2
:1021200001010160704700BF4AF20000C4F20A00DA
:10213000032101604FF080400168C90720D1006889
:1021400010F01C0F06D04FF08040006800F01C001B
:10215000082815D100BF00BF00BF00BF00BF00BFEF
:1021600000BF00BF00BF00BF00BF00BF00BF00BF77
:1021700000BF00BF00BF00BF00BF00BF36E000BF10
:1021800044F6206000BF00BF00BF00BF00BF00BF1B
:1021900000BF00BF00BF00BF00BF00BF00BF00BF47
:1021A00000BF00BF00BF00BF00BF00BF00BF00BF37
:1021B00000BF00BF00BF00BF00BF00BF00BF00BF27
:1021C00000BF00BF00BF00BF00BF00BF00BF00BF17
:1021D00000BF00BF00BF00BF00BF00BF00BF00BF07
:1021E00000BF00BF00BF323800BFCBD14FF08040EE
:1021F0000168012241F0010101600421C4F20001E3
:102200000A60016821F01C010160016841F01001C1
:102210000160016841F0020101600168C9071FD136
:10222000006810F01C0F06D04FF08040006800F0EE
:102230001C00082814D100BF00BF00BF00BF00BFB2
:1022400000BF00BF00BF00BF00BF00BF00BF00BF96
:1022500000BF00BF00BF00BF00BF00BF00BF35E030
:1022600044F6206000BF00BF00BF00BF00BF00BF3A
:1022700000BF00BF00BF00BF00BF00BF00BF00BF66
:1022800000BF00BF00BF00BF00BF00BF00BF00BF56
:1022900000BF00BF00BF00BF00BF00BF00BF00BF46
:1022A00000BF00BF00BF00BF00BF00BF00BF00BF36
:1022B00000BF00BF00BF00BF00BF00BF00BF00BF26
:1022C00000BF00BF00BF323800BFCBD14FF080400D
:1022D000016821F001010160704700BFF0B581B0D5
:1022E0004AF22006C4F20A06012146F8201C4FF0EB
:1022F00080410A680446D20720D1086810F01C0FFC
:1023000006D04FF08040006800F01C00082815D16E
:1023100000BF00BF00BF00BF00BF00BF00BF00BFC5
:1023200000BF00BF00BF00BF00BF00BF00BF00BFB5
:1023300000BF00BF00BF00BF36E000BF44F6206012
:1023400000BF00BF00BF00BF00BF00BF00BF00BF95
:1023500000BF00BF00BF00BF00BF00BF00BF00BF85
:1023600000BF00BF00BF00BF00BF00BF00BF00BF75
:1023700000BF00BF00BF00BF00BF00BF00BF00BF65
:1023800000BF00BF00BF00BF00BF00BF00BF00BF55
:1023900000BF00BF00BF00BF00BF00BF00BF00BF45
:1023A00000BF323800BFCBD14FF0804738680025DE
:1023B00040F00100C4F20A053860284603210F22CC
:1023C000002301F083F9284604210F22002301F0A5
:1023D0007DF9306840F4702040F0220030603868A9
:1023E000C0071FD1386810F01C0F06D04FF0804096
:1023F000006800F01C00082814D100BF00BF00BF17
:1024000000BF00BF00BF00BF00BF00BF00BF00BFD4
:1024100000BF00BF00BF00BF00BF00BF00BF00BFC4
:1024200000BF35E044F6206000BF00BF00BF00BF22
:1024300000BF00BF00BF00BF00BF00BF00BF00BFA4
:1024400000BF00BF00BF00BF00BF00BF00BF00BF94
:1024500000BF00BF00BF00BF00BF00BF00BF00BF84
:1024600000BF00BF00BF00BF00BF00BF00BF00BF74
:1024700000BF00BF00BF00BF00BF00BF00BF00BF64
:1024800000BF00BF00BF00BF00BF323800BFCBD1CC
:102490004FF080400168C90720D1006810F01C0F80
:1024A00006D04FF08040006800F01C00082815D1CD
:1024B00000BF00BF00BF00BF00BF00BF00BF00BF24
:1024C00000BF00BF00BF00BF00BF00BF00BF00BF14
:1024D00000BF00BF00BF00BF36E000BF44F6206071
:1024E00000BF00BF00BF00BF00BF00BF00BF00BFF4
:1024F00000BF00BF00BF00BF00BF00BF00BF00BFE4
:1025000000BF00BF00BF00BF00BF00BF00BF00BFD3
:1025100000BF00BF00BF00BF00BF00BF00BF00BFC3
:1025200000BF00BF00BF00BF00BF00BF00BF00BFB3
:1025300000BF00BF00BF00BF00BF00BF00BF00BFA3
:1025400000BF323800BFCBD10420C4F2000001210B
:1025500001604FF080400168002C21F01C010160F7
:10256000016841F00C010160016821F0020118BF0F
:1025700002310160016821F00101016001B0F0BD8C
:10258000B0B50024C4F20A044AF2400520460321F3
:102590000F220023C4F20A0501F098F82046042116
:1025A0000F22002301F092F855F8200C40F470201F
:1025B00040F0220045F8200C4FF080400168C90728
:1025C00020D1006810F01C0F06D04FF0804000684A
:1025D00000F01C00082815D100BF00BF00BF00BFDD
:1025E00000BF00BF00BF00BF00BF00BF00BF00BFF3
:1025F00000BF00BF00BF00BF00BF00BF00BF00BFE3
:1026000036E000BF44F6206000BF00BF00BF00BF3F
:1026100000BF00BF00BF00BF00BF00BF00BF00BFC2
:1026200000BF00BF00BF00BF00BF00BF00BF00BFB2
:1026300000BF00BF00BF00BF00BF00BF00BF00BFA2
:1026400000BF00BF00BF00BF00BF00BF00BF00BF92
:1026500000BF00BF00BF00BF00BF00BF00BF00BF82
:1026600000BF00BF00BF00BF00BF323800BFCBD1EA
:102670004FF080400168C90720D1006810F01C0F9E
:1026800006D04FF08040006800F01C00082815D1EB
:1026900000BF00BF00BF00BF00BF00BF00BF00BF42
:1026A00000BF00BF00BF00BF00BF00BF00BF00BF32
:1026B00000BF00BF00BF00BF36E000BF44F620608F
:1026C00000BF00BF00BF00BF00BF00BF00BF00BF12
:1026D00000BF00BF00BF00BF00BF00BF00BF00BF02
:1026E00000BF00BF00BF00BF00BF00BF00BF00BFF2
:1026F00000BF00BF00BF00BF00BF00BF00BF00BFE2
:1027000000BF00BF00BF00BF00BF00BF00BF00BFD1
:1027100000BF00BF00BF00BF00BF00BF00BF00BFC1
:1027200000BF323800BFCBD128684FF6006120F0DF
:10273000020028606868CFF6E04108406860686879
:1027400040F4403040F03C006860286820F004000D
:10275000286000BFE86830B9E86820B9E86810B9B7
:10276000E8680028F6D0286840F001002860B0BD75
:102770004AF20000C4F20A00012101604FF08041DA
:102780000A68D20720D1096811F01C0F06D04FF05B
:102790008041096801F01C01082915D100BF00BF64
:1027A00000BF00BF00BF00BF00BF00BF00BF00BF31
:1027B00000BF00BF00BF00BF00BF00BF00BF00BF21
:1027C00000BF00BF36E000BF44F6206100BF00BF7D
:1027D00000BF00BF00BF00BF00BF00BF00BF00BF01
:1027E00000BF00BF00BF00BF00BF00BF00BF00BFF1
:1027F00000BF00BF00BF00BF00BF00BF00BF00BFE1
:1028000000BF00BF00BF00BF00BF00BF00BF00BFD0
:1028100000BF00BF00BF00BF00BF00BF00BF00BFC0
:1028200000BF00BF00BF00BF00BF00BF00BF323904
:1028300000BFCBD14FF080410A6842F001020A602C
:10284000012202650420C4F200000260086820F042
:102850001C00086008680860086820F00200086032
:102860000868C00720D1086810F01C0F06D04FF090
:102870008040006800F01C00082815D100BF00BF90
:1028800000BF00BF00BF00BF00BF00BF00BF00BF50
:1028900000BF00BF00BF00BF00BF00BF00BF00BF40
:1028A00000BF00BF36E000BF44F6206000BF00BF9D
:1028B00000BF00BF00BF00BF00BF00BF00BF00BF20
:1028C00000BF00BF00BF00BF00BF00BF00BF00BF10
:1028D00000BF00BF00BF00BF00BF00BF00BF00BF00
:1028E00000BF00BF00BF00BF00BF00BF00BF00BFF0
:1028F00000BF00BF00BF00BF00BF00BF00BF00BFE0
:1029000000BF00BF00BF00BF00BF00BF00BF323824
:1029100000BFCBD14FF08040016821F00101016080
:10292000704700BF4AF22000C4F20A00012140F8BB
:10293000201C4FF080410A68D2071FD1096811F0AE
:102940001C0F06D04FF08041096801F01C010829D6
:1029500014D100BF00BF00BF00BF00BF00BF00BF59
:1029600000BF00BF00BF00BF00BF00BF00BF00BF6F
:1029700000BF00BF00BF00BF00BF35E044F62061CC
:1029800000BF00BF00BF00BF00BF00BF00BF00BF4F
:1029900000BF00BF00BF00BF00BF00BF00BF00BF3F
:1029A00000BF00BF00BF00BF00BF00BF00BF00BF2F
:1029B00000BF00BF00BF00BF00BF00BF00BF00BF1F
:1029C00000BF00BF00BF00BF00BF00BF00BF00BF0F
:1029D00000BF00BF00BF00BF00BF00BF00BF00BFFF
:1029E00000BF323900BFCBD14FF080410A6842F0BE
:1029F00001020A60016840F21172114301604FF454
:102A00007A7000BF00BF00BF00BF00BF00BF00BFA3
:102A100000BF00BF00BF00BF00BF00BF00BF00BFBE
:102A200000BF00BF00BF00BF00BF00BF00BF00BFAE
:102A300000BF00BF00BF00BF00BF00BF00BF00BF9E
:102A400000BF00BF00BF00BF00BF00BF00BF00BF8E
:102A500000BF00BF00BF00BF00BF00BF00BF00BF7E
:102A600000BF00BF00BF323800BFCBD10420C4F28A
:102A70000000012101604FF08040016821F01C013D
:102A80000160016841F008010160016821F0020164
:102A900001600168C9071FD1006810F01C0F06D043
:102AA0004FF08040006800F01C00082814D100BFDF
:102AB00000BF00BF00BF00BF00BF00BF00BF00BF1E
:102AC00000BF00BF00BF00BF00BF00BF00BF00BF0E
:102AD00000BF00BF00BF35E044F6206000BF00BF6C
:102AE00000BF00BF00BF00BF00BF00BF00BF00BFEE
:102AF00000BF00BF00BF00BF00BF00BF00BF00BFDE
:102B000000BF00BF00BF00BF00BF00BF00BF00BFCD
:102B100000BF00BF00BF00BF00BF00BF00BF00BFBD
:102B200000BF00BF00BF00BF00BF00BF00BF00BFAD
:102B300000BF00BF00BF00BF00BF00BF00BF3238F2
:102B400000BFCBD14FF08040016821F0010101604E
:102B5000704700003348804733480047FEE7FEE7F0
:102B6000FEE7FEE7FEE7FEE7FEE7FEE7FEE7FEE73D
:102B7000FEE7FEE7FEE7FEE7FEE7FEE7FEE7FEE72D
:102B8000FEE7FEE7FEE7FEE7FEE7FEE7FEE7FEE71D
:102B9000FEE7FEE7FEE7FEE7FEE7FEE7FEE7FEE70D
:102BA000FEE7FEE7FEE7FEE7FEE7FEE7FEE7FEE7FD
:102BB000FEE7FEE7FEE7FEE7FEE7FEE7FEE7FEE7ED
:102BC000FEE7FEE7FEE7FEE7FEE7FEE7FEE7FEE7DD
:102BD000FEE7FEE7FEE7FEE7FEE7FEE7FEE7FEE7CD
:102BE000FEE7FEE7FEE7FEE7FEE7FEE7FEE7FEE7BD
:102BF000FEE7FEE7FEE7FEE7FEE7FEE7FEE7FEE7AD
:102C0000FEE7FEE7FEE7FEE7FEE7FEE7FEE7FEE79C
:102C1000FEE7FEE7FEE7FEE7FEE7FEE7FEE7FEE78C
:102C2000FEE70000C91D0200A901020080B54FF0B7
:102C3000010C43690CFA01F18B434361D0F808E0C1
:102C4000D3066FEA010C0BD40EEA0C038360D0F8B4
:102C50000CE0930712D40EEA0C03C36003E000BF3C
:102C60004EEA01038360D207036914BF43EA0102FD
:102C700003EA0C020261016280BD00BF4EEA01025C
:102C8000C260016280BD00BF0122436902FA01F106
:102C900023EA0101416170470122436902FA01F10F
:102CA00019434161704700BFC069C84000F001008E
:102CB000704700BF8069C84000F00100704700BF46
:102CC000012202FA01F101627047000001051CBFF8
:102CD0000220704710B54FF6AC74EFF3108172B656
:102CE000C0F6113440F27142000BC1F200122146CD
:102CF00090474AF20C00C4F20400006840F201421E
:102D000040F48020C1F2001221469047002062B6B4
:102D100010BD00BF10B500F00F0302F00304234301
:102D20001CBF022010BD4FF6AC74EFF3108372B6D7
:102D3000C0F6113440F2C14C9208C1F2001C234687
:102D4000E0474AF20C00C4F20400006840F201427D
:102D500040F48020C1F2001221469047002062B664
:102D600010BD00BF80B54FF6AC72EFF3108172B6A4
:102D70004F28C0F611320FDC1E282FD028281DD175
:102D800040F2314348F6492041F2A941C1F2001313
:102D9000984762B680BD00BF50282BD078280DD14F
:102DA00041F6894040F23143C0F2010043F66B51D5
:102DB000C1F20013984762B680BD00BF41F689405A
:102DC000C0F2010040F2314300F5924044F67441F4
:102DD000C1F20013984762B680BD00BF40F2314394
:102DE00048F6491040F6A171C1F20013984762B647
:102DF00080BD00BF40F231434DF2493042F64A11E6
:102E0000C1F20013984762B680BD00002DE9F0437F
:102E100081B0074640F2FF70C4F2040000249846D7
:102E2000914687420D46C4F20A041BDD41F2FF7051
:102E3000C4F2040087422BDC40F60000C4F2040018
:102E400087423BD041F20000C4F2040087425BD1CC
:102E50000820C4F200000168203441F00401016040
:102E600052E000BFB7F1402F32D044F60000C4F268
:102E70000000874240D00020C4F20400874243D1C2
:102E80000820C4F20000016841F0010101603BE04C
:102E900041F60000C4F20400874223D041F2000052
:102EA000C4F20A0087422FD10820C4F20000416812
:102EB000403441F00101416026E000BF0820C4F227
:102EC00000000168103441F0020101601CE000BF05
:102ED0000820C4F200000168803441F01001016054
:102EE00012E000BF0820C4F200000168303441F055
:102EF0000801016008E000BF0820C4F2000001687A
:102F0000903441F02001016020462946002201232F
:102F1000012600F0DBFB06FA05F07968B9F1010F34
:102F200014BF21EA00000843786001210898A940F5
:102F3000D4F80021B8F1010F14BF22EA01011143B6
:102F40000122C4F80011012802FA05F0D4F8002289
:102F500014BF22EA000010430999C4F800020120BE
:102F6000A8400129D4F800140CBF084321EA00004E
:102F7000C4F8000401B0BDE8F08300BF012203687B
:102F800002FA01F119430160704700BF0122036892
:102F900002FA01F123EA010101607047012203688E
:102FA00002FA01F159400160704700BF006BC84050
:102FB00000F00100704700BFC2F110024FF6FF732E
:102FC00023FA02F2036802FA01F119430160704723
:102FD000C2F110024FF6FF7323FA02F2036802FAFD
:102FE00001F123EA01010160704700BFC2F1100244
:102FF0004FF6FF7323FA02F2036802FA01F1594017
:1030000001607047006BC2F110024FF6FF7323FAA4
:1030100002F2C8401040704700EB810001210164BA
:10302000704700BF00EB810000210164704700BFC2
:1030300000EB8100016CC1F101010164704700BF28
:10304000C2F110024FF6FF7323FA02F2EFF310837E
:1030500072B6036802FA01F11943016062B6704763
:10306000C2F110024FF6FF7323FA02F2EFF310835E
:1030700072B6036802FA01F123EA0101016062B647
:10308000704700BFC2F110024FF6FF7323FA02F23D
:10309000EFF3108372B6036802FA01F15940016040
:1030A00062B670472DE9F04146F2000CC4F20A0CFA
:1030B00046F6000E6045C4F20A0E05D070450BD1ED
:1030C0004FF4803202E000BF4FF400420823C4F204
:1030D00000031C6822431A60026822F001020260A9
:1030E0000B780268012B3BD142F00202026040F2F1
:1030F0000402C2F20002126849F68173C1F25E63F3
:103100004C6844F24026A2FB0323C0F20F06DA0CFF
:103110004FF0FF33B6FBF4F46FF0FF0603EB42050C
:1031200006EB02220026CFF6FF7606EB04442A4384
:103130002243426243618A7BC97B704542EA410374
:10314000836159D060456FD151EA020046D04EF2FA
:103150000010CEF200004FF400410160BDE8F081A4
:1031600022F002020260026B22F001020263056B90
:103170000E7A91F80E803543CC7B0B7C05631022D0
:10318000B6FA86F54F89002E08BF11228E896D0987
:1031900007FA05F506FA02F22A4342634FF0FF32BE
:1031A00048EA4405426145EA0322497C704542EA07
:1031B000412282612CD0604518BFBDE8F08144EA0D
:1031C00008001843084309D04EF20010CEF2000068
:1031D0004FF400410160BDE8F08100BF4EF20010E5
:1031E000CEF200004FF40041C0F88010BFF34F8FC3
:1031F000BFF36F8FBDE8F08151EA02004EF200107C
:10320000CEF2000012D04FF080410160BDE8F081A5
:1032100044EA0800184308434EF20010CEF20000C2
:1032200004D04FF080410160BDE8F0814FF0804153
:10323000C0F88010BFF34F8FBFF36F8FBDE8F081F0
:10324000016821F001010160704700BF016841F091
:1032500001010160704700BF01610521002A016280
:1032600004BF00207047002141F28532036A5B07EA
:103270000DD500BF036A5B0742BF00BF036A5FEA68
:10328000437304D5914201F1030100BFEED9806878
:10329000012121EA50007047006A012121EA9000D3
:1032A000704700BF8068012121EA5000704700BFCD
:1032B00008220029026208BF7047002141F28532CE
:1032C000036A1B070DD500BF036A1B0742BF00BF7F
:1032D000036A5FEA037304D5914201F1030100BF61
:1032E000EED97047006A012121EAD000704700BF83
:1032F00001610421002A016204BF002070470021FF
:1033000041F28532036A5B070DD500BF036A5B0794
:1033100042BF00BF036A5FEA437304D5914201F1E3
:10332000030100BFEED98068012121EA50007047F7
:10333000006A012121EA9000704700BFB1FA81F1D3
:10334000490981600221002A016202BF0020C0B247
:103350007047002141F28532036A9B070DD500BFFB
:10336000036A9B0742BF00BF036A5FEA837304D509
:10337000914201F1030100BFEED9C068C0B27047AD
:10338000006A012121EA5000704700BF82691143A1
:1033900081617047826922EA01018161704700BF43
:1033A000416170474069084018BF01207047000024
:1033B0002DE9F04742F2000CC4F2000C604506D142
:1033C0000823C4F200031A6842F080421A600A78A7
:1033D0000C7F4B78023A42EA841203F0010503F0B5
:1033E000FE064B7F42EA05424FF40054A4EB4334FF
:1033F00042EA064291F806E0224342F4607291F8F4
:103400000A9042610C89CA896FF0FF084F8840F228
:10341000000A08EB0424CFF6FF7A013A0AEB0745CD
:1034200022432A43AEF1010442EA8462604582618C
:103430008A890C8A8E8808EB0222A4F101040AEB27
:10344000064642EA040242EA0602A9F1010442EAFF
:103450008462C2618A69426240F2FF12026445647A
:1034600086644969C164A7F1010101654FF001015A
:10347000016043600AD1002B08BFBDE8F0874EF21F
:103480000810CEF200004FF400710160BDE8F08733
:10349000137800EB811003F580710164B2F802C06B
:1034A00093884CEA03414164D2F806108164D168E4
:1034B000C164A3EB0C01016542F21400C4F20000E8
:1034C000016841F400410160704700BF80B5DDE94B
:1034D00002EC42EA034200EB81104EEA0C414264E6
:1034E000816442F21400C4F20000016841F400411A
:1034F000016080BDC16841F00201C160704700BF3A
:10350000C068C0F34000704701214160704700BFB0
:1035100000214160704700BF01210160704700BF7A
:10352000006800F00100704710B542F20002C4F2DA
:103530000002904209D10822C4F20002136843F04D
:103540008043136000BF00BF00BF4FF48022426180
:10355000026C6FF01F0342F4807202640A7891F8E3
:1035600001E003EB42120023CFF6FF7303EB0E439F
:1035700091F802C043EA0204002391F803E0CFF679
:10358000F0734CF2000203EB0C53CFF6FF7202EB28
:103590008E3223431A430B7949794FF60044CFF614
:1035A000FF74013B04EB81211A431143C0F8001161
:1035B00010BD00BFC0F804110AE000BF00BFC16821
:1035C000890742BF00BFC1685FEA817108D500BFAB
:1035D000C168890742BF00BFC1685FEA8171EDD44D
:1035E000704700BFC0F808110AE000BF00BFC16803
:1035F000890742BF00BFC1685FEA817108D500BF7B
:10360000C168890742BF00BFC1685FEA8171EDD41C
:10361000704700BFC0F80411C168890741BF00BFEF
:10362000C1685FEA817100BF41BFC1685FEA817113
:1036300000BFC16848BF5FEA817101D500BFEBE7F9
:10364000C0F808210AE000BF00BFC168890742BF77
:1036500000BFC1685FEA817108D500BFC1688907F2
:1036600042BF00BFC1685FEA8171EDD4704700BFFF
:10367000C0F804110AE000BF00BFC168890742BF5B
:1036800000BFC1685FEA817108D500BFC1688907C2
:1036900042BF00BFC1685FEA8171EDD4D0F8080174
:1036A00080B27047C0F80C110021CFF6FF7101EB1A
:1036B00002415A1E1143C0F81011C16841F00201C5
:1036C000C1607047C068C0F34000704770B56FF0CC
:1036D0001F0C0CEB810C0446082938BF4FEA810C03
:1036E0004FF00F0E28BF043426680EFA0CF5AE43D7
:1036F0002660266802FA0CF232432260012202FAA6
:1037000001F1002BD0F800230CBF22EA0101114384
:10371000C0F8001370BD000070B540F208010C2520
:10372000C2F200014378C4F200050968027890F8FB
:1037300002C090F803E02E685C1CB1FBF4F146F483
:1037400080562E604FF44846057901FB06F6407915
:10375000354445EA8E1643EAC20346EA80004FF03C
:103760000846306040F20400C2F20000006841F2F6
:103770008046B0FBF4F0C0F2EF3643EA4C03B042AF
:1037800088BF43F004030C20C8F60000032A40F869
:10379000083C05D84FF40063DFE802F00202060897
:1037A0004FF4805302E000BF4FF400534FF47A42CD
:1037B000B2FBF3F2013292B201FB02F140F8041CB9
:1037C000022101600AE000BF00BF0168890742BF13
:1037D00000BF01685FEA817108D500BF01688907F1
:1037E00042BF00BF01685FEA8171EDD470BD00BFC8
:1037F0000C20C8F60000016821F00101016000BF43
:1038000000BF00BF00BF00BF00BF00BF00BF00BFC0
:1038100000BF00BF00BF00BF00BF00BF00BF00BFB0
:1038200000BF00BF00BF00BF00BF00BF00BF00BFA0
:1038300000BF00BF00BF00BF00BF00BF00BF00BF90
:1038400000BF00BF00BF00BF00BF00BF00BF00BF80
:1038500000BF00BF00BF00BF00BF00BF00BF00BF70
:1038600000BF00BF00BF00BF00BF00BF00BF00BF60
:1038700000BF00BF00BF00BF00BF00BF00BF00BF50
:1038800000BF00BF00BF00BF00BF00BF00BF00BF40
:1038900000BF00BF00BF00BF00BF00BF00BF00BF30
:1038A00000BF00BF00BF00BF00BF00BF00BF00BF20
:1038B00000BF00BF00BF00BF00BF00BF00BF00BF10
:1038C00000BF00BF00BF70470C20C8F600000168B1
:1038D00041F00101016000BF00BF00BF00BF00BF99
:1038E00000BF00BF00BF00BF00BF00BF00BF00BFE0
:1038F00000BF00BF00BF00BF00BF00BF00BF00BFD0
:1039000000BF00BF00BF00BF00BF00BF00BF00BFBF
:1039100000BF00BF00BF00BF00BF00BF00BF00BFAF
:1039200000BF00BF00BF00BF00BF00BF00BF00BF9F
:1039300000BF00BF00BF00BF00BF00BF00BF00BF8F
:1039400000BF00BF00BF00BF00BF00BF00BF00BF7F
:1039500000BF00BF00BF00BF00BF00BF00BF00BF6F
:1039600000BF00BF00BF00BF00BF00BF00BF00BF5F
:1039700000BF00BF00BF00BF00BF00BF00BF00BF4F
:1039800000BF00BF00BF00BF00BF00BF00BF00BF3F
:1039900000BF00BF00BF00BF00BF00BF00BF704737
:1039A00080B50C21C4F200010A6842F400520A609A
:1039B0004AF60001C4F204010722C1F8F4230A68A0
:1039C00022F46C620A60837802789B0290F801C04E
:1039D00090F803E043EA821200790B681A4342EA46
:1039E00040204FF6FF720860086840F02000086031
:1039F000086A3FFA80F00862086A40EA0C6040EA10
:103A00000E200862086820F0200008604868904393
:103A1000486040F20800C2F2000000684CF6CD4257
:103A2000CCF6CC424B68A0FB020243EAD20040F441
:103A30007F40486080BD00BF4AF61400C4F2040015
:103A400050F8141C21F00F0140F8141C50F8141CFD
:103A500041F0220140F8141C9F2101610121016005
:103A6000016831B1016821B1016811B10168002913
:103A7000F6D18068704700BF80B54AF60002C4F2F4
:103A8000040290611368013023F00F03136041F2C8
:103A90002700136808BF41F2250040F2080C1843C4
:103AA00010602020506201205061C2F2000CDCF84E
:103AB0000030CBB1002300BF00BFDCF800E0581C91
:103AC000704511D200BFDCF800E0981C70450BD2A5
:103AD00000BFDCF800E0D81C704505D200BFDCF860
:103AE000000004338342E7D3106820F48050106054
:103AF00001B30520012104E0D369DB0708BF80BDC5
:103B000000BF136823F00F031360136843F0210311
:103B100013605062516100BF5369002BECD05369B0
:103B2000002BE9D05369002BE6D05369002BF3D169
:103B3000E2E700BF80BD00BF80B54AF6000EC4F2C8
:103B4000040ECEF81800DEF800C001302CF00F0390
:103B5000CEF8003041F22700DEF8003008BF41F215
:103B6000250040F2080C1843CEF800000120CEF8E2
:103B70002410CEF81400C2F2000CDCF80010C9B119
:103B8000002100BF00BFDCF80030481C984211D271
:103B900000BFDCF800008B1C83420BD200BFDCF8B6
:103BA0000000CB1C834205D200BFDCF800000431CA
:103BB0008142E7D3DEF8000020F48050CEF8000008
:103BC00052B30520012105E0DEF81C20D20708BF12
:103BD00080BD00BFDEF8002022F00F02CEF80020EA
:103BE000DEF8002042F02102CEF80020CEF82400BA
:103BF000CEF81410DEF81420002AE5D0DEF81420E8
:103C0000002AE1D0DEF81420002ADDD0DEF81420EE
:103C1000002AEFD1D8E700BF80BD00BF4AF61400EC
:103C2000C4F2040050F8141C21F00F0140F8141CD9
:103C300050F8141C41F0210140F8141C05210161C9
:103C400001210160016831B1016821B1016811B140
:103C500001680029F6D1806800F00100704700BFBC
:103C60002DE9F04F81B04AF6080EC4F2040E5EF85A
:103C7000083C002A43F480534EF8083C47D0531EBA
:103C8000032B02F00306009102D20022314626E007
:103C900022F0030800F1E04202F1040B01F10804F4
:103CA0000BF1040A0BF1080700234FF0E049002252
:103CB000314600BFE61856F8085C00EB030C4CF8E0
:103CC000095056F8045C04324BF80350E55890450F
:103CD0004AF803507668FE5003F11003EAD1009EC3
:103CE000A9B156F8223000F1E040012940F8223015
:103CF0000DD0531C56F82370022940F8237006D0CB
:103D0000911C56F8212040F8212000E000BFDEF889
:103D10000000C0071EBF00BFDEF800005FEAC070F1
:103D20000AD000BFDEF80000C0071EBF00BFDEF8EB
:103D300000005FEAC070E9D15EF8080C20F4805002
:103D40004EF8080C01B0BDE8F08F00BF2DE9F04738
:103D5000B2B3531E032B02F0030C01D2002223E066
:103D600022F0030E00F1E04202F1040A0AF1040914
:103D700001F108050AF1080600274FF0E04800228B
:103D8000C41954F80840EB1943F8084C5AF8074096
:103D9000043243F8044C59F807409645EC51F45965
:103DA00007F110075C60EBD1BCF1000F08D000F107
:103DB000E04050F82230BCF1010F41F8223001D12F
:103DC000BDE8F087531C50F82370BCF1020F41F896
:103DD000237008BFBDE8F087023250F8220041F896
:103DE0002200BDE8F08700BF4AF61401C4F20401C6
:103DF00051F8142C22F00F0241F8142C51F8142C15
:103E000042F0210241F8142C08610120086000BF33
:103E1000086830B1086820B1086810B10868002847
:103E2000F6D18868C0B270474AF61402C4F20402A0
:103E300052F8143C23F00F0342F8143C52F814CC0F
:103E400041F2260343EA0C0342F8143C10610120BE
:103E50009160106006E000BF1068002808BF70473E
:103E6000106820B1106810B110680028F4D17047B4
:103E70004AF61401C4F2040151F8142C22F00F0286
:103E800041F8142C51F8142C42F0210241F8142C62
:103E900035220A6101220A600A6832B10A6822B139
:103EA0000A6812B10A68002AF6D1D1F808C051F8A0
:103EB000143C23F00F0341F8143C51F8143C43F038
:103EC000210341F8143C05230B6101230B6000BF63
:103ED0000B6833B10A6822B10A6812B10A68002A75
:103EE000F6D14FF47D4202EA0C228B68002818BFFD
:103EF00002F5007251F8140CDBB220F00F0041F80B
:103F0000140C51F8140C1A4441F22603184341F8DA
:103F1000140C012008618A60086005E00868002828
:103F200008BF7047086820B1086810B10868002809
:103F3000F4D170474AF61400C4F2040050F8141C7F
:103F400021F00F0140F8141C50F8141C41F021011D
:103F500040F8141C3521016101210160016831B173
:103F6000016821B1016811B101680029F6D18068AA
:103F7000C0F34000704700002DE9F0410446A0F175
:103F80008040A0F58D204FEAB010DDF8188004289D
:103F900040F208001D4616460F46C4F2000005D840
:103FA000016841F40061016004E000BF416841F430
:103FB00080014160204600F0A3F9A068B8F1000F2D
:103FC00020F00F00A060A06840EA0700A060A6F102
:103FD00001002063A5F1010020604FF00100606145
:103FE0002169404618BF012021F00101084448F62C
:103FF000BF01C4F204018C4220612DDD48F6BF10E0
:10400000C4F2040084424DDD48F63F20C4F20400AF
:10401000844240F3878048F64020C4F20400844282
:1040200000F0F08048F68020C4F20400844200F0E2
:10403000F78048F6C020C4F20400844209D1B8F1E8
:10404000000F06D04EF20810CEF200004FF400012F
:104050000160BDE8F08100BF46F6FF00C4F2040035
:1040600084423FDC46F67F00C4F20400844275DCE3
:1040700046F60000C4F20400844200F0DF8046F6F9
:104080004000C4F204008442E3D1B8F1000FE0D054
:104090004EF20810CEF20000082140F8081CBDE8DE
:1040A000F08100BF48F63F10C4F20400844271DC86
:1040B00048F6C000C4F20400844200F0CD8048F607
:1040C0000010C4F204008442C3D1B8F1000FC0D084
:1040D0004EF20810CEF200004FF480310160BDE8CE
:1040E000F08100BF48F63F00C4F2040084426DDC5A
:1040F00046F60010C4F20400844200F0BB8048F68B
:104100000000C4F204008442A3D1B8F1000FA0D093
:104110004EF20810CEF200004FF4006140F8081C87
:10412000BDE8F08148F6C010C4F20400844200F0FB
:10413000AF8048F60020C4F2040084427FF489AFC7
:10414000B8F1000F3FF485AF4EF20810CEF2000038
:104150004FF480110160BDE8F08100BF46F6800099
:10416000C4F20400844200F0A18046F6C000C4F20C
:10417000040084427FF46DAFB8F1000F3FF469AFE3
:104180004EF20810CEF200004FF4800140F8081CF7
:10419000BDE8F08148F64010C4F20400844200F00B
:1041A000938048F68010C4F2040084427FF451AF3B
:1041B000B8F1000F3FF44DAF4EF20810CEF2000000
:1041C0004FF480210160BDE8F08100BF48F6400057
:1041D000C4F20400844200F0858048F68000C4F2F6
:1041E000040084427FF435AFB8F1000F3FF431AFE3
:1041F0004EF20810CEF200004FF0005140F8081CBB
:10420000BDE8F081B8F1000F3FF423AF4EF2081083
:10421000CEF200004FF400110160BDE8F08100BF54
:10422000B8F1000F08BFBDE8F0814EF20810CEF2E1
:1042300000004FF480010160BDE8F081B8F1000F8B
:104240003FF407AF4EF20810CEF20000042140F810
:10425000081CBDE8F08100BFB8F1000F3FF4F9AED3
:104260004EF20810CEF200004FF0004140F8081C5A
:10427000BDE8F081B8F1000F3FF4EBAE4EF208104C
:10428000CEF200004FF400410160BDE8F08100BFB4
:10429000B8F1000F3FF4DDAE4EF20810CEF2000090
:1042A0004FF400210160BDE8F08100BFB8F1000FBC
:1042B0003FF4CFAE4EF20810CEF200004FF4801162
:1042C00040F8081CBDE8F081B8F1000F3FF4C1AE22
:1042D0004EF20810CEF200004FF400310160BDE84C
:1042E000F08100BFB8F1000F3FF4B3AE4EF20810FA
:1042F000CEF200004FF0806140F8081CBDE8F0816C
:1043000048F6BF01C4F20401884248F64041C4F2B5
:10431000040123DD48F6BF12C4F2040290423DDDE1
:1043200048F63F22C4F20402904263DD48F6402280
:10433000C4F20402904200F09D8048F68022C4F24C
:104340000402904200F09A8048F6C022C4F20402AF
:10435000904240F0B5806FF40060ADE046F6FF0299
:10436000C4F204029042A1F500522DDC46F67F0112
:10437000C4F2040188424DDC46F60001C4F2040197
:10438000884200F07F8046F64001C4F20401884272
:1043900018BF70476FF002008FE000BF48F63F1271
:1043A000C4F20402904245DC48F6C002C4F20402A2
:1043B00090426BD048F60012C4F20402904240F0E2
:1043C0007F806FF0100077E048F63F03C4F20403EB
:1043D00098423FDC46F60013C4F20403984259D0D9
:1043E00048F60002C4F20402904269D16FF0010065
:1043F00062E000BF48F6C012C4F2040290424DD001
:1044000048F60022C4F20402904259D16FF4807041
:1044100052E000BF46F68001C4F20401884241D058
:1044200046F6C001C4F20401884249D16FF0080089
:1044300043E000BF48F64012C4F20402904235D077
:1044400048F68012C4F20402904239D16FF0400065
:1044500032E000BF48F64002C4F20402904229D084
:1044600048F68002C4F20402904229D16FF00400A1
:1044700022E000BF6FF400701EE000BF6FF48060A8
:104480001AE000BF6FF0010017E000BF6FF00800F6
:1044900012E000BF6FF010000FE000BF6FF080006F
:1044A0000AE000BF6FF0040007E000BF6FF02000DB
:1044B00002E000BF6FF002000A4611680840106079
:1044C000704700BF48F6BF01C4F20401884248F6B5
:1044D0004041C4F2040123DD48F6BF12C4F20402D5
:1044E00090423BDD48F63F22C4F2040290425DDD7B
:1044F00048F64022C4F20402904200F0918048F64F
:104500008022C4F20402904200F08E8048F6C0225D
:10451000C4F20402904240F09C804FF4006094E0AA
:1045200046F6FF02C4F204029042A1F5005229DCD3
:1045300046F67F01C4F20401884247DC46F60001DA
:10454000C4F20401884273D046F64001C4F204016B
:10455000884218BF7047022078E000BF48F63F123B
:10456000C4F2040290423FDC48F6C002C4F20402E6
:1045700090425FD048F60012C4F20402904268D123
:10458000102062E048F63F03C4F20403984239DC8D
:1045900046F60013C4F2040398424DD048F60002D8
:1045A000C4F20402904254D101204EE048F6C012F9
:1045B000C4F20402904241D048F60022C4F2040240
:1045C000904246D14FF480703FE000BF46F6800134
:1045D000C4F20401884233D046F6C001C4F204019B
:1045E000884236D1082031E048F64012C4F2040275
:1045F000904227D048F68012C4F20402904228D19B
:10460000402022E048F64002C4F2040290421BD04F
:1046100048F68002C4F2040290421AD1042014E049
:104620004FF4007011E000BF4FF480600DE000BF58
:1046300001200BE0082008E0102007E0802004E0C3
:10464000042003E0202000E002200A46116808430D
:104650001060704701218161704700BF00218161B6
:10466000704700BF40687047016941F00101016176
:10467000704700BF016921F001010161704700BF6F
:1046800001214161704700BF406900F0010070479F
:104690000162C169002B21F0020118BF0231C16122
:1046A00002214161016948F6BF0321F00201002A9D
:1046B00018BF0231C4F204039842016128DD48F6B4
:1046C000BF11C4F20401884246DD48F63F21C4F21E
:1046D000040188427CDD48F64021C4F2040188428E
:1046E00000F0DC8048F68021C4F20401884200F02A
:1046F000E18048F6C021C4F20401884207D132B1FA
:104700004EF20810CEF200004FF400010160704735
:1047100046F6FF01C4F2040188423BDC46F67F0105
:10472000C4F2040188426BDC46F60001C4F20401C5
:10473000884200F0CB8046F64001C4F20401884272
:10474000E5D1002AE3D04EF20810CEF20000082195
:1047500040F8081C704700BF48F63F11C4F204013E
:10476000884267DC48F6C001C4F20401884200F0C8
:10477000B98048F60011C4F204018842C7D1002A6A
:10478000C5D04EF20810CEF200004FF48031016027
:10479000704700BF48F63F01C4F20401884263DC61
:1047A00046F60011C4F20401884200F0A78048F6E2
:1047B0000001C4F204018842A9D1002AA7D04EF218
:1047C0000810CEF200004FF4006140F8081C70475A
:1047D00048F6C011C4F20401884200F09B8048F6FC
:1047E0000021C4F20401884291D1002A8FD04EF2F8
:1047F0000810CEF200004FF480110160704700BF36
:1048000046F68001C4F20401884200F08F8046F62B
:10481000C001C4F2040188427FF479AF002A3FF45A
:1048200076AF4EF20810CEF200004FF4800140F84F
:10483000081C704748F64011C4F20401884200F099
:10484000818048F68011C4F2040188427FF45FAF92
:10485000002A3FF45CAF4EF20810CEF200004FF495
:1048600080210160704700BF48F64001C4F2040196
:10487000884273D048F68001C4F2040188427FF474
:1048800046AF002A3FF443AF4EF20810CEF20000CC
:104890004FF0005140F8081C704700BF002A3FF459
:1048A00036AF4EF20810CEF200004FF40011016056
:1048B000704700BF002A08BF70474EF20810CEF2C2
:1048C00000004FF480010160704700BF002A3FF4F0
:1048D0001EAF4EF20810CEF20000042140F8081C72
:1048E000704700BF002A3FF412AF4EF20810CEF21C
:1048F00000004FF0004140F8081C7047002A3FF4C8
:1049000006AF4EF20810CEF200004FF400410160F5
:10491000704700BF002A3FF4FAAE4EF20810CEF204
:1049200000004FF400210160704700BF002A3FF4EF
:10493000EEAE4EF20810CEF200004FF4801140F8B7
:10494000081C7047002A3FF4E2AE4EF20810CEF287
:1049500000004FF400310160704700BF002A3FF4AF
:10496000D6AE4EF20810CEF200004FF0806140F853
:10497000081C7047C16921F00201C161704700BF86
:10498000C269002922F0010218BF0132C261C16967
:1049900041F00201C161704701627047006A7047CF
:1049A000016941F002010161704700BF016921F016
:1049B00002010161704700BF02214161704700BFE1
:1049C0004069C0F34000704780B518234361036914
:1049D000002923F0100318BF103303610369002A74
:1049E00023F0080EA0F1804318BF0EF1080EA3F5C6
:1049F0008D234FEAB31CBCF1040FC0F810E03ED881
:104A00000FF20400DFE80CF0040E1824300000BFA1
:104A100052EA010033D04EF20010CEF20000042121
:104A2000016080BD52EA010029D04EF20010CEF2A2
:104A300000000821016080BD52EA01001FD04EF243
:104A40000010CEF200004FF48011016080BD00BF65
:104A500052EA010013D04EF20010CEF200004FF4E3
:104A60008001016080BD00BF52EA010008BF80BD27
:104A70004EF20010CEF200004FF40041816080BD84
:104A8000C06A7047806A7047016941F01001016196
:104A9000704700BF016921F010010161704700BF3C
:104AA00010214161704700BF4069C0F3001070479A
:104AB000016941F008010161704700BF016921F0FF
:104AC00008010161704700BF08214161704700BFC4
:104AD0004069C0F3C000704710B5A0F18042A2F554
:104AE00084224FEAF22CBCF1030F0BD840F2080EDF
:104AF00055A2C4F2000E52F82C20DEF800301A4302
:104B0000CEF8002042684CF2000322F400724260AA
:104B10008268C0F6FF731A40826040F20402C2F25B
:104B2000000212680B68BCF1030FB2FBF3F283685A
:104B3000A2F1010243EA32128260426822F47C024E
:104B400042604A790B794FEAC24242EA834E8B793E
:104B5000426842EA0E0242EA83524260C26892B25E
:104B6000C26091F807E04B7AC26842EA0E4242EA1C
:104B7000036240F6FF73C260C26922EA0302C261A7
:104B8000CA7AC36942EA030242F48052C2614268AF
:104B900044F2140322EA030242608A7A0B7A91F803
:104BA0000CE04FEA820141EA0311446841EA040142
:104BB00041EA8E31416088BF10BD0FF20600DFE888
:104BC0000CF003111F2D00BF42EA030050EA0E0053
:104BD0004EF20010CEF200004FF001012CD0016027
:104BE00010BD00BF42EA030050EA0E004EF2001072
:104BF000CEF200004FF002011ED0016010BD00BFD8
:104C000042EA030050EA0E004EF20010CEF200001D
:104C10004FF4807110D0016010BD00BF42EA030064
:104C200050EA0E004EF20010CEF200004FF40011D8
:104C300002D0016010BD00BFC0F88010BFF34F8FDD
:104C4000BFF36F8F10BD00BF400000008000000068
:104C50000001000000020000416821F40071416081
:104C6000704700BF416841F400714160704700BF68
:104C7000016070470268022000EA52206FF35F2251
:104C80000A6070474068012121EA0000704700BFB8
:104C90004068012121EAD000704700BF4068C0F39E
:104CA0004000704782684CF20003C0F6FF731A4060
:104CB000826040F20402C2F200021268B2FBF1F11B
:104CC0008268013942EA31118160704740F2040183
:104CD000C2F20001096882684FF6F073C0F2030364
:104CE00003EA0212806842EA10700130B1FBF0F072
:104CF000704700BF436941EA820123F00503436125
:104D000042691143416170474069C0F3C010704768
:104D1000D0F814C0D2002CF07A0C42EA4101C0F85D
:104D200014C041EA0311426911434161704700BF59
:104D30004069C0F30020704780B5D0F818C06FF00C
:104D40003F0E2CF47F7C0EEB8111C0F818C041EAB5
:104D500083018369194381610169029B21F0050187
:104D6000016142EA830102691143016180BD00BF14
:104D7000016941F010010161704700BF0069C0F393
:104D8000400070470069C0F3C000704721F4807193
:104D9000FD2907DC80290FD0F8290BD14FF02071B5
:104DA00010E000BFFE290BD0FF2903D14FF4000112
:104DB00008E000BFFEE700BF4FF0607102E000BFF7
:104DC0004FF0C071826822F0607282608268114385
:104DD000816070478168090244BF00207047806885
:104DE00040014FF0020058BF012070474268114354
:104DF00041607047426822EA01014160704700BF8C
:104E0000490458BF7047C16941F40051C1617047FE
:104E1000CA0644BF82685FEA422213D44A0444BFF0
:104E200082685FEA82220DD44A0744BF82685FEA43
:104E3000823207D4490652BF00208068C0F3C060A8
:104E4000704700BF0120704740F2080CC4F2000C0C
:104E5000DCF8003043F48063CCF8003083684EF215
:104E6000001C23F0010383608368CEF2000C23F45E
:104E700070638360836843F480638360836849B1AF
:104E800043F00403836001234160C3608023CCF8B6
:104E9000003009E023F0040383608023CCF88030E5
:104EA000BFF34F8FBFF36F8F8368002A23F0020395
:104EB0001CBF02331146836001607047816821F096
:104EC00001018160704700BF816841F0010181608C
:104ED000704700BF55210161704700BF0121C160CB
:104EE000704700BFC068704710B54CF2B414C2F2EE
:104EF000000420461BF0BCFF40F22030C0F2E0105E
:104F0000206040F22120217AC0F20200606001F0AE
:104F1000FC0040F2000220720020C8F218020021BA
:104F20001CF07CF82046BDE810401BF0A7BF000035
:104F3000B0B540F2B804C2F2000420461CF07CFB7D
:104F400040F2E520C0F2020060600120207020469F
:104F50001CF084FB04F1100528461CF06DFB40F2A8
:104F60000930C0F202000321606128462174BDE8C7
:104F7000B0401CF073BB00004CF22810C0F20400DB
:104F800014211CF0D5BB000080B541F6D050C0F212
:104F900005001CF017FD40F2D510C0F20200BDE87C
:104FA00080401CF053BD00002DE9F04389B0044659
:104FB0001CF00EF805461CF00BF8002814BFD0F8C2
:104FC00008804FF000083DB3002C45DD204607F077
:104FD00005F900284CD006464FF0FF30ADF80C0024
:104FE000002035880490D6E90301D6F80490069095
:104FF000307D0791411E4FF6FF770729ADF80E501F
:10500000CDF8149057D80220DFE801F055044A4C3F
:105010004E50525401204EE040F2E52000904DF2F7
:105020000B204DF284214EF650424DF2DC234DF21E
:10503000F226C0F20400C0F20401C0F20402C0F281
:105040000403C0F204064FF6FF77019624F0DEFD5C
:1050500038B209B0BDE8F08307F01EF9002814BF8C
:1050600007884FF6FF7738B209B0BDE8F08300BF7C
:1050700040F2ED2000904DF20B204DF284214EF6CF
:1050800050424DF2DC2360A6C0F20400C0F20401DD
:10509000C0F20402C0F204034FF6FF77A1E000BFA4
:1050A000042008E0032006E0062004E0052002E0DA
:1050B000082000E007208DF8200007F071F8BD42BD
:1050C000044633D0A0B2A8420CD107F057FA00280A
:1050D00008BF07F06BFA07F06FF818B107F05AF83D
:1050E000814605902C46B9F1000F33D007F058F8EF
:1050F00080B2A1B2884202D007F040FA20B103A8E2
:1051000007F062F80028A3D00598804507D0DDE9B4
:1051100006239DF820100127009700F081F8BDF8C4
:105120000E7038B209B0BDE8F08300BF07F026FA70
:10513000002808BF07F03AFAA0B2B8421ED0ADF876
:105140000E4007F039F80028CDD007F023F881464B
:105150000590C8E725B2284606F03EFFB0B180476B
:10516000059050B3054607F097F80028BED0418857
:10517000A2B2914208BF8560B8E700BF7488D6F834
:105180000890ADF80E40CDF81490ACE740F2D9206D
:10519000CDE900054DF23E204DF280214EF6504201
:1051A0004DF28A23C0F20400C0F20401C0F20402EE
:1051B000C0F20403029524F029FD40F2153000905E
:1051C0004DF20B204DF284214EF650424DF2DC237D
:1051D00007A6C0F20400C0F20401C0F20402C0F24B
:1051E0000403019624F012FD38B209B0BDE8F08343
:1051F0006E65775F6974656D2E63757272656E7426
:105200005F73637200000000746172676574000070
:1052100080B51BF0DDFE002814BF8068002080BD33
:105220002DE9F047AAB0984691460F4605461BF077
:10523000CFFE06461BF0CCFE002814BF8468002475
:10524000002E00F09580DDF8C8A01BF00DFF204671
:10525000002C18BF384695F82F10002F08BF38468D
:1052600041F0080185F82F1096F85A1100F00F024E
:1052700001F0F0011144002886F85A115CD0D4E9FD
:105280000710CDE9141016A81CF0A8FD1E98CDF843
:105290008490002800F070804DF2AF22C0F204022A
:1052A0000821D42306F00CFB1E9018B114A9082283
:1052B00006F01CFB46F25510C0F202006F461B9030
:1052C0003846CDF8808018941CF088FD46F2CD1049
:1052D000C0F20200049046F2ED10C0F20200059008
:1052E00016A80321CDE90A8902951CF093FD3846E2
:1052F00003211CF08FFD96F85A0100F00F000138D1
:10530000072800F2CF80DFE800F0055D6F81939FF2
:10531000B1BD00BF46F29520C0F20200199031687D
:10532000BDF95020098823928B18B5F91C202593CC
:105330000390501A92E000BFAC4205D0E869C6F86D
:105340001A0028461BF08CFF1BF042FE002818BFF5
:1053500085603068016806F11A00C6F81E1000F07A
:1053600087FAAC4204D0002C18BFBAF1000F11D15B
:105370002AB0BDE8F08700BF4DF2AF21C0F20401B2
:105380000820D42206F092FA00281E907FF48EAFF7
:1053900090E700BF16AD28461CF020FD46F24110F4
:1053A000C0F202001B902846CDE9208918941CF019
:1053B00069FD0028DCD1204621F014FD2AB0BDE8AB
:1053C000F08700BF46F29520C0F2020019903168C4
:1053D000BDF9502009882392531AB5F91C20259352
:1053E000039050183AE000BF46F29D20C0F2020040
:1053F00019903168BDF95220498823928B18B5F96C
:105400001E2025930390501A46E000BF46F29D20CF
:10541000C0F2020019903168BDF9522049882392E8
:10542000531AB5F91E2025930390501834E000BF9D
:1054300046F29520C0F2020003903068B5F91C20B6
:105440000088101A0AE000BF46F29520C0F2020060
:1054500003903068B5F91C200088104401B20D900B
:1054600028460F9207F01AFC1CE000BF46F29D2070
:10547000C0F2020003903068B5F91E204088101A6F
:105480000AE000BF46F29D20C0F20200039030689F
:10549000B5F91E204088104401B20D9028460F92A5
:1054A00007F038FC68461CF0EDFC16A81CF0EAFC7E
:1054B000BAF1000F3FF45CAF94F82F0040F01000F9
:1054C00084F82F002AB0BDE8F08700BF80B58EB009
:1054D000ADF8080000204FF496718DF80A00CDE970
:1054E000031001208DF8140006A802A900F06AF844
:1054F0009DF834C05FEA8C700DD5069909988142F9
:105500000CD0DDE90A239DF830100CF0010CCDF829
:1055100000C0FFF785FE0EB080BD00BF084600F05A
:1055200057F90EB080BD00BF80B58AB0014602A811
:1055300000F048F89DF824C05FEA8C700DD5029900
:10554000059881420CD0DDE906239DF820100CF06F
:10555000010CCDF800C0FFF763FE0AB080BD00BFAC
:10556000084600F035F90AB080BD00BF80B58EB0A6
:10557000DDF840C0ADF808008DF80A1006A802A9B1
:10558000CDE903238DF814C000F01CF89DF834C059
:105590005FEA8C700DD50699099881420CD0DDE93F
:1055A0000A239DF830100CF0010CCDF800C0FFF775
:1055B00037FE0EB080BD00BF084600F009F90EB0FE
:1055C00080BD00BFF0B585B004464CF25810C0F263
:1055D0000400D0E90452D0E900EC0E46D0E90237CD
:1055E000D0E90610C4E90452254645F804CFC4F8B2
:1055F00000E0C4E90237A161E0615EB31BF0E8FCA2
:10560000002814BF80680020317B206001F0010079
:1056100031882077E180D6E901012061B0786161AD
:10562000207606F0BDFD064603A8294606F08EFF4B
:10563000049898B1BDF90C0006F0D0FD0188A18056
:10564000D0E90110A160217FE06041F001002077E6
:1056500021E000BF5CA740F255307DE006F01CFE63
:10566000C8B107467988207FA180C20704BFBA6805
:10567000A260B2B28A420AD106F09EFD30B1217F0B
:105680000020A06001F0FE00207700E0207FC0072E
:105690001CBF0020B860701C0ED0E088B1B28842F8
:1056A0000AD14FF6FF7706F069FF002808BF06F021
:1056B0007DFF0020A780A060E06848B1284606F082
:1056C00083FDC8B1207F40F00200207705B0F0BD17
:1056D000B4F90670384606F07FFC08B38047E060F6
:1056E000B8B3E188B2B28A4208BF06F04DFD284641
:1056F00006F06AFD0028E5D14DF280214EF65042B9
:105700004DF2103340F28E371EA0C0F20401C0F2F9
:105710000402C0F20403009724F078FA05B0F0BD4B
:1057200040F2D920CDE900074DF23E204DF2802114
:105730004EF650424DF28A23C0F20400C0F204013A
:10574000C0F20402C0F20403029724F05FFA0020C2
:10575000E06017A74FF4627000904DF20B204DF2FD
:1057600084214EF650424DF21033C0F20400C0F2D4
:105770000401C0F20402C0F20403019724F046FAC7
:1057800005B0F0BD5B47545F4552524F5D5B2573DA
:105790005D5B2573257328293A25645D2050757358
:1057A0006820737461636B206661696C65640A00CC
:1057B0006E65775F6974656D5F702D3E637572729B
:1057C000656E745F73637200706172616D000000DA
:1057D000F0B583B005461BF0FBFB80B3846874B35F
:1057E00045B900201BF0F6FB208400201BF004FCD0
:1057F00025466084D5E90767CDE900671BF0E8FB23
:10580000B0B10169A1B1284620F094FD80B1300CFF
:1058100040EA0745204607F04FFB3044ADF8000052
:10582000204607F075FB2844ADF8020004E000BFF5
:10583000284606F063FA10B168461BF029FC03B055
:10584000F0BD00BF80B582B04FF0010C00214FF4D5
:1058500096720023CDF800C0FFF7E2FC02B080BDD5
:1058600010B504461BF0B4FB002818BF846010BDBF
:105870002DE9F04F91B00646002000251BF0AAFB51
:10588000804600201BF0B8FB07461BF0A1FB044636
:105890007068ADF82C80CDE909054FF4F070ADF8D3
:1058A0002E700C95ADF83480ADF83670CDE90E55FC
:1058B0008DF84050ADF84200A06831680028079488
:1058C000089163D02068002800F07A80017A4A07A6
:1058D00000F1CE8341F004010172616807AABDF8AE
:1058E0004200151D0029A4F8268006912085059503
:1058F00000F080804FF4F070ADF82480ADF8260001
:10590000D4F808B00020BBF1000F089000F0AC8084
:1059100094F85A0100F00F01062900F2CE8001220E
:1059200002FA01F111F0660F00F0C7809DF8400007
:1059300040F001008DF84000BBF91C00B4F90C10D8
:10594000401A1DF0ADF8ABF8200020461BF042FBDA
:10595000BBF82010411A0698ADF83410018494F871
:105960005A01BBF8202000F00F03013B052BADF8D6
:105970002C2000F2A280DFE803F0039BA0A0039B91
:10598000ADF828100021ADF8301096E040F27240DA
:1059900000904DF20B204DF284214EF650420FF252
:1059A0007877C0F204000FF28473C0F20401C0F2F1
:1059B0000402019724F02AF911B0BDE8F08F00BF6E
:1059C000522000904DF20B204DF284214EF65042B1
:1059D000C0F204000FF22C73C0F20401C0F2040202
:1059E0004DF23837C0F20407019724F00FF911B0D7
:1059F000BDE8F08FD4F80880404620F005FDB8F1EE
:105A0000000F3BD0D4F81A108246404640F81C1FC5
:105A100029461CF01DFE002800F0228307981BF089
:105A2000D9FA0799044608461BF0E6FABDF8247037
:105A3000BC4240F01382BDF82610884240F00E822E
:105A4000BDF92010002903D489B23944A14202D9FA
:105A50000021ADF82010BDF822100022002918BF47
:105A6000ADF82220A6E200BF40F25A2000904DF28D
:105A70000B20C0F204000FF2606308E04FF42670C0
:105A800000904DF20B20C0F204000FF260634DF263
:105A900084214EF650424DF2F727C0F20401C0F2C5
:105AA0000402C0F20407019724F0B0F8D8E200BF66
:105AB0000021ADF82810ADF8302000F00F010829C2
:105AC00037D8012202FA01F111F4CC7F31D09DF8D0
:105AD0004000A66800F0FE0065688DF84000B6F949
